:100000000C944A000C9469000C9469000C946900EB
:100010000C9469000C9469000C9469000C946900BC
:100020000C9469000C9469000C9469000C946900AC
:100030000C9469000C9469000C9469000C9469009C
:100040000C9469000C9469000C9469000C9469008C
:100050000C9469000C94C6000C9469000C9469001F
:100060000C9469000C9469000C9469000C9469006C
:100070000C9469000C9469000C9469000C9469005C
:100080000C9469000C9469000C9469000C9469004C
:100090000C94690011241FBECFEFD0E1DEBFCDBFAD
:1000A00011E0A0E0B1E0ECE7FFE000E00BBF02C030
:1000B00007900D92A432B107D9F722E0A4E2B1E093
:1000C00001C01D92A532B207E1F70E947E050C9493
:1000D000BC070C940000CF93DF9300D000D01F9298
:1000E000CDB7DEB789837B836A835D834C838C8144
:1000F0009D81AC0160E289810E94A404813059F4A1
:100100008A819B81AC016EE189810E94A4048130C7
:1001100011F481E001C080E00F900F900F900F90DC
:100120000F90DF91CF910895CF93DF9300D01F926E
:10013000CDB7DEB78B83CE010196AC0164E28B8133
:100140000E94EC03813019F489819A8102C080E019
:1001500090E00F900F900F90DF91CF910895CF9383
:10016000DF9300D0CDB7DEB78A83CE010196AC0114
:100170006EE28A810E94B903813011F4898101C045
:1001800080E00F900F90DF91CF9108951F920F9212
:1001900000905F000F92112400905B000F922F934C
:1001A0003F938F939F93EF93FF93CF93DF93CDB7BD
:1001B000DEB78091240191E0980F90932401882F5D
:1001C00090E026EC30E0F90120818B559E4FFC0138
:1001D0002083DF91CF91FF91EF919F918F913F917C
:1001E0002F910F9000925B000F9000925F000F9094
:1001F0001F901895CF93DF9300D000D0CDB7DEB716
:1002000069837A838B839C8385EC90E0FC01108268
:1002100084EC90E0FC01108281EC90E021EC30E075
:10022000F90120812860FC01208381EC90E021EC21
:1002300030E0F90120812061FC01208381EC90E015
:1002400021EC30E0F90120812068FC0120838AE262
:1002500090E02AE230E0F90120812460FC01208353
:100260008AE290E02AE230E0F90120812860FC0176
:100270002083109224010F900F900F900F90DF9128
:10028000CF910895CF93DF93CDB7DEB78BE290E0A7
:100290002BE230E0F90120812460FC0120838BE215
:1002A00090E02BE230E0F9012081277FFC012083E0
:1002B000DF91CF910895CF93DF93CDB7DEB7A097AD
:1002C0000FB6F894DEBF0FBECDBF000080EC90E00B
:1002D000FC018081882F90E080749927892BB1F3ED
:1002E00080E090E0A0E8BFE389839A83AB83BC837E
:1002F0002AEF3DEE4BE650E469817A818B819C8147
:100300000E944F07DC01CB018D839E83AF83B887AA
:100310002CE732EF40E350E469817A818B819C8144
:100320000E944F07DC01CB0189879A87AB87BC8786
:1003300020E030E040E85FE36D817E818F81988529
:100340000E942F0688231CF481E08D87B2C020E034
:100350003FEF4FE757E469857A858B859C850E943E
:100360004A0718160CF07BC020E030E04AE754E45E
:1003700069817A818B819C810E943406DC01CB01EA
:100380008E879F87A88BB98B2DEC3CEC4CE255E413
:100390006E857F85888999890E944F07DC01CB0192
:1003A0008A8B9B8BAC8BBD8B20E030E040E85FE319
:1003B0006A897B898C899D890E942F0688232CF469
:1003C00081E090E09F8B8E8B3FC020E03FEF4FE7B6
:1003D00057E46A897B898C899D890E944A0718168F
:1003E0004CF520E030E040E251E46E857F8588895D
:1003F00099890E944F07DC01CB01BC01CD010E940D
:10040000A606DC01CB019F8B8E8B0FC084E191E0AF
:10041000998F888F888D998D0197F1F7998F888FA3
:100420008E899F8901979F8B8E8B8E899F89892BBF
:1004300069F73FC06A897B898C899D890E94A606DD
:10044000DC01CB019F8B8E8B8E899F899B8F8A8F3E
:100450008A8D9B8D0197F1F79B8F8A8F2AC020E0B0
:1004600030E04FE753E46D817E818F8198850E9453
:100470004A071816ACF469857A858B859C850E949D
:10048000A606DC01CB019D8F8C8F8C8D9D8D9F8F5F
:100490008E8F8E8D9F8D0197F1F79F8F8E8F0FC05E
:1004A0006D817E818F8198850E94A606DC01CB013B
:1004B0008D878D8588A388A18A95F1F788A38BE223
:1004C00090E02BE230E0F90120812B7FFC012083BA
:1004D0008BE290E02BE230E0F90120812860FC0102
:1004E000208310922401A0960FB6F894DEBF0FBEB1
:1004F000CDBFDF91CF910895CF93DF931F92CDB7FA
:10050000DEB78983000080EC90E0FC018081882FB9
:1005100090E080729927892BB1F386EC90E02981D5
:10052000FC0120830F90DF91CF910895CF93DF934B
:1005300000D000D01F92CDB7DEB79D838C831A8286
:10054000198282E08B8314C08B81882F90E02C81EC
:100550003D81820F931FFC018081882F90E02981CB
:100560003A81820F931F9A8389838B818F5F8B835C
:100570008B81282F30E08C819D810396FC01808146
:10058000882F90E0029682179307F4F68981809570
:100590000F900F900F900F900F90DF91CF910895D3
:1005A000CF93DF9300D000D0CDB7DEB79B838A8393
:1005B0006C8319820EC08981882F90E02A813B814B
:1005C000820F931FFC0180810E947C0289818F5FD2
:1005D000898399818C81981770F381E00F900F9037
:1005E0000F900F90DF91CF9108951F93CF93DF93DA
:1005F00000D000D01F92CDB7DEB79C838B836D8374
:100600001A8219820CC089819A819C012F5F3F4F09
:100610003A8329838131974210F083E027C090917B
:1006200024018D81981778F38B819C81FC01808156
:100630008F3F39F48B819C810196FC0180818F3F33
:1006400011F082E013C08D81882F90E001972B81FB
:100650003C81820F931FFC0110818B819C810E9441
:100660009602181711F082E001C081E00F900F9000
:100670000F900F900F90DF91CF911F9108950F93DE
:100680001F93CF93DF9300D000D000D0CDB7DEB75B
:100690009C838B837E836D831982809128018C5F7C
:1006A0008A838B819C812FEFFC0120838B819C812D
:1006B00001962FEFFC0120838A81882F90E001971B
:1006C0002B813C818901080F191F8B819C810E941D
:1006D0009602F80180830E9442018B819C816A818D
:1006E0000E94D0020E945B018B819C810296FC01DA
:1006F00080818E3FB9F08B819C810496FC018081C2
:10070000823041F48B819C810696FC0180818A5F56
:10071000898302C086E089838D819E8169810E94E0
:10072000F50203C00E94420181E026960FB6F894BC
:10073000DEBF0FBECDBFDF91CF911F910F91089506
:10074000CF93DF931F92CDB7DEB7898389818093E2
:10075000270182E08093280181E08093290165EAE6
:1007600071E085E291E00E943F030F90DF91CF910D
:100770000895CF93DF9300D000D01F92CDB7DEB79E
:100780008A836B835D834C838A818093270184E015
:100790008093280182E0809329018B8180932A0134
:1007A00081E080932B0165EA71E085E291E00E948F
:1007B0003F0389838981813031F42091AA018C81A2
:1007C0009D81FC01208389810F900F900F900F90E5
:1007D0000F90DF91CF910895CF93DF9300D000D099
:1007E0001F92CDB7DEB78A836B835D834C838A818A
:1007F0008093270184E08093280182E0809329017F
:100800008B8180932A0182E080932B0165EA71E05D
:1008100085E291E00E943F0389838981813069F4F8
:100820009091AB018091AA01692F0E944B059C0118
:100830008C819D81FC013183208389810F900F90F1
:100840000F900F900F90DF91CF910895CF93DF938A
:10085000CDB7DEB728970FB6F894DEBF0FBECDBF79
:100860008C836D834E8338872F839E818D81292FC2
:10087000281B822F8F5F8A838C818093270184E0DD
:100880008093280182E0809329018D8180932A0141
:100890008A8180932B0165EA71E085E291E00E94F4
:1008A0003F038B838B81813009F519821BC08D81B9
:1008B000282F30E08981882F90E0820F931F9C01C0
:1008C0008F819885820F931F2981222F30E02B5F23
:1008D0003F4F2B553E4FF9012081FC012083898138
:1008E0008F5F898399818A81981708F38B81289675
:1008F0000FB6F894DEBF0FBECDBFDF91CF91089544
:10090000CF93DF9300D01F92CDB7DEB789836A8380
:100910004B8389818093270184E08093280183E0C1
:10092000809329018A8180932A018B8180932B01F6
:1009300065EA71E085E291E00E943F030F900F901D
:100940000F90DF91CF910895CF93DF9300D000D027
:10095000CDB7DEB789836A835C834B8389818093BB
:10096000270185E08093280183E0809329018A8113
:1009700080932A018B819C810E94610580932B01C9
:100980008B819C810E946E0580932C0165EA71E049
:1009900085E291E00E943F030F900F900F900F901F
:1009A000DF91CF910895CF93DF9300D000D000D096
:1009B000CDB7DEB78A836B834C833E832D838EEF66
:1009C0008093270183E8809329018A8180932A01FB
:1009D0008B8180932B018B81882F90E00196982F3B
:1009E0008C81989F802D11248C5F8093280119821F
:1009F00014C08981882F90E007962981222F30E04A
:100A00004D815E81240F351FF90120818B5D9E4F42
:100A1000FC01208389818F5F89838981282F30E0C1
:100A20008B81882F90E0BC016F5F7F4F8C81482FB6
:100A300050E0649FC001659F900D749F900D11243C
:100A400028173907B4F265EA71E085E291E00E9467
:100A50003F0326960FB6F894DEBF0FBECDBFDF91E1
:100A6000CF910895CF93DF931F92CDB7DEB78983DF
:100A700089818093270182E08093280186E080931A
:100A8000290165EA71E085E291E00E943F030F9041
:100A9000DF91CF910895CF93DF9300D0CDB7DEB72C
:100AA00089836A838A81882F90E0382F2227898161
:100AB000882F90E0820F931F0F900F90DF91CF91BE
:100AC0000895CF93DF9300D0CDB7DEB79A838983A3
:100AD00089810F900F90DF91CF910895CF93DF938D
:100AE00000D0CDB7DEB79A83898389819A81892F17
:100AF00099270F900F90DF91CF910895CF93DF93B7
:100B0000CDB7DEB760970FB6F894DEBF0FBECDBF8E
:100B10001A82198294C089819A81880F991F880F3F
:100B2000991F80509F4FFC0180819181A281B381E8
:100B3000BC01CD010E94FA0046E950E060E282E08B
:100B40000E94A40440E951E06EE182E00E94A40406
:100B500080E090E0AAE7B4E48B839C83AD83BE83FE
:100B60002DEC3CEC4CE255E46B817C818D819E81C7
:100B70000E944F07DC01CB018F839887A987BA8732
:100B800020E030E040E85FE36F81788589859A85D1
:100B90000E942F0688232CF481E090E09C878B87AD
:100BA0003FC020E03FEF4FE757E46F8178858985AC
:100BB0009A850E944A0718164CF520E030E040E282
:100BC00051E46B817C818D819E810E944F07DC0105
:100BD000CB01BC01CD010E94A606DC01CB019C87A4
:100BE0008B870FC084E191E09E878D878D859E85E0
:100BF0000197F1F79E878D878B859C8501979C8750
:100C00008B878B859C85892B69F714C06F817885CC
:100C100089859A850E94A606DC01CB019C878B877B
:100C20008B859C85988B8F878F8598890197F1F7A5
:100C3000988B8F8789819A8101969A83898389818C
:100C40009A8109970CF467CF80E090E060960FB628
:100C5000F894DEBF0FBECDBFDF91CF9108950E9403
:100C6000D50608F481E008950E9448060C94100708
:100C70000E94090758F00E94020740F029F45F3FE4
:100C800029F00C94F90651110C9444070C94FF06BA
:100C90000E94210768F39923B1F3552391F3951B23
:100CA000550BBB27AA2762177307840738F09F5F8D
:100CB0005F4F220F331F441FAA1FA9F335D00E2EFA
:100CC0003AF0E0E832D091505040E695001CCAF767
:100CD0002BD0FE2F29D0660F771F881FBB1F26172A
:100CE00037074807AB07B0E809F0BB0B802DBF0101
:100CF000FF2793585F4F3AF09E3F510578F00C94D0
:100D0000F9060C9444075F3FE4F3983ED4F38695CC
:100D100077956795B795F7959F5FC9F7880F911DF0
:100D20009695879597F90895E1E0660F771F881FDC
:100D3000BB1F621773078407BA0720F0621B730B8F
:100D4000840BBA0BEE1F88F7E09508950E942907DF
:100D500088F09F5798F0B92F9927B751B0F0E1F07C
:100D6000660F771F881F991F1AF0BA95C9F714C02C
:100D7000B13091F00E944307B1E008950C9443070D
:100D8000672F782F8827B85F39F0B93FCCF3869565
:100D900077956795B395D9F73EF4909580957095C2
:100DA00061957F4F8F4F9F4F0895990F0008550F02
:100DB000AA0BE0E8FEEF16161706E807F907C0F0E1
:100DC00012161306E407F50798F0621B730B840BE9
:100DD000950B39F40A2661F0232B242B252B21F4C3
:100DE00008950A2609F4A140A6958FEF811D811D63
:100DF000089597F99F6780E870E060E008959FEF9D
:100E000080EC089500240A941616170618060906A1
:100E1000089500240A941216130614060506089570
:100E2000092E0394000C11F4882352F0BB0F40F4F8
:100E3000BF2B11F460FF04C06F5F7F4F8F4F9F4F38
:100E4000089557FD9058440F551F59F05F3F71F0BA
:100E50004795880F97FB991F61F09F3F79F0879521
:100E60000895121613061406551FF2CF4695F1DFAA
:100E700008C0161617061806991FF1CF869571053A
:100E8000610508940895E894BB2766277727CB016E
:100E900097F908950E94D50608F48FEF08950E94EF
:100EA00062070C9410070E94020738F00E9409079D
:100EB00020F0952311F00C94F9060C94FF061124F0
:100EC0000C9444070E94210770F3959FC1F3950F7E
:100ED00050E0551F629FF001729FBB27F00DB11DBE
:100EE000639FAA27F00DB11DAA1F649F6627B00D4E
:100EF000A11D661F829F2227B00DA11D621F739F37
:100F0000B00DA11D621F839FA00D611D221F749F44
:100F10003327A00D611D231F849F600D211D822F8B
:100F2000762F6A2F11249F5750409AF0F1F08823B2
:100F30004AF0EE0FFF1FBB1F661F771F881F9150DF
:100F40005040A9F79E3F510580F00C94F9060C948F
:100F500044075F3FE4F3983ED4F386957795679511
:100F6000B795F795E7959F5FC1F7FE2B880F911D09
:0C0F70009695879597F90895F894FFCFA7
:100F7C00002474490024F4480050C34800247448E9
:100F8C00005043480000E1470000614700009646CE
:040F9C0000001646F5
:00000001FF
