:100000000C944A000C945C000C945C000C945C0012
:100010000C945C000C945C000C945C000C945C00F0
:100020000C945C000C945C000C945C000C945C00E0
:100030000C945C000C945C000C945C000C945C00D0
:100040000C945C000C945C000C945C000C945C00C0
:100050000C945C000C943B010C945C000C945C00D0
:100060000C945C000C945C000C945C000C945C00A0
:100070000C945C000C945C000C945C000C945C0090
:100080000C94BF060C945C000C947D060C945C00F0
:100090000C945C0011241FBECFEFD0E1DEBFCDBFBA
:1000A00022E0A0E0B1E001C01D92A738B207E1F75D
:1000B0000E94F4050C94660A0C940000CF93DF9321
:1000C00000D000D000D0CDB7DEB79A838983898174
:1000D0009A819C01990F440B550B8FEF9FEFDC0128
:1000E0000E94F307DC01CB012CE231E040E050E05C
:1000F000BC01CD010E94D407DA01C90126960FB6D2
:10010000F894DEBF0FBECDBFDF91CF910895CF939E
:10011000DF9300D0CDB7DEB79A83898349815A81B6
:100120002CE231E0429FC001439F900D529F900D01
:10013000112421E030E08F3F9F4F10F420E030E0A9
:10014000C9010F900F90DF91CF910895CF93DF9366
:10015000CDB7DEB727970FB6F894DEBF0FBECDBF81
:100160008B837D836C835F834E838C819D810E9412
:100170005E009A83898389819A81AC0160E28B81D8
:100180000E941A05813059F48C819D81AC016EE189
:100190008B810E941A05813011F481E001C080E05A
:1001A00027960FB6F894DEBF0FBECDBFDF91CF917B
:1001B0000895CF93DF9300D01F92CDB7DEB78B8326
:1001C000CE010196AC0164E28B810E946204813011
:1001D00029F489819A810E94870002C080E090E022
:1001E0000F900F900F90DF91CF910895CF93DF93F1
:1001F00000D0CDB7DEB78A83CE010196AC016EE2A6
:100200008A810E942F04813011F4898101C080E02D
:100210000F900F90DF91CF910895CF93DF9300D08F
:10022000CDB7DEB78A83CE010196AC016AE28A813E
:100230000E942F04813011F4898101C080E00F9069
:100240000F90DF91CF910895CF93DF9300D0CDB77A
:10025000DEB78A83CE010196AC016AE28A810E94F0
:100260002F04813011F4898101C080E00F900F903C
:10027000DF91CF9108951F920F9200905F000F922F
:10028000112400905B000F922F933F938F939F93C5
:10029000EF93FF93CF93DF93CDB7DEB7809100014B
:1002A00091E0980F90930001882F90E026EC30E0C9
:1002B000F9012081895F9D4FFC012083DF91CF915F
:1002C000FF91EF919F918F913F912F910F9000920D
:1002D0005B000F9000925F000F901F901895CF93D6
:1002E000DF9300D000D0CDB7DEB769837A838B83EC
:1002F0009C8385EC90E0FC01108284EC90E025E08A
:10030000FC01208381EC90E021EC30E0F9012081B8
:100310002860FC01208381EC90E021EC30E0F901C1
:1003200020812061FC01208381EC90E021EC30E011
:10033000F90120812068FC0120838AE290E02AE212
:1003400030E0F90120812460FC0120838AE290E002
:100350002AE230E0F90120812860FC01208310921C
:1003600000010F900F900F900F90DF91CF910895A3
:10037000CF93DF93CDB7DEB78BE290E02BE230E096
:10038000F90120812460FC0120838BE290E02BE2C4
:1003900030E0F9012081277FFC012083DF91CF919C
:1003A0000895CF93DF93CDB7DEB7A0970FB6F8943B
:1003B000DEBF0FBECDBF000080EC90E0FC0180816D
:1003C000882F90E080749927892BB1F380E090E02A
:1003D000A0E8BFE389839A83AB83BC832AEF3DEE19
:1003E0004BE650E469817A818B819C810E94F909F6
:1003F000DC01CB018D839E83AF83B8872CE732EF7E
:1004000040E350E469817A818B819C810E94F909E3
:10041000DC01CB0189879A87AB87BC8720E030E07D
:1004200040E85FE36D817E818F8198850E949C0802
:1004300088231CF481E08D87B2C020E03FEF4FE7B6
:1004400057E469857A858B859C850E94F409181686
:100450000CF07BC020E030E04AE754E469817A8107
:100460008B819C810E94A108DC01CB018E879F8734
:10047000A88BB98B2DEC3CEC4CE255E46E857F8566
:10048000888999890E94F909DC01CB018A8B9B8BB1
:10049000AC8BBD8B20E030E040E85FE36A897B896C
:1004A0008C899D890E949C0888232CF481E090E02F
:1004B0009F8B8E8B3FC020E03FEF4FE757E46A8968
:1004C0007B898C899D890E94F40918164CF520E0DF
:1004D00030E040E251E46E857F85888999890E94E9
:1004E000F909DC01CB01BC01CD010E941309DC013B
:1004F000CB019F8B8E8B0FC084E191E0998F888F09
:10050000888D998D0197F1F7998F888F8E899F89B2
:1005100001979F8B8E8B8E899F89892B69F73FC0AE
:100520006A897B898C899D890E941309DC01CB0132
:100530009F8B8E8B8E899F899B8F8A8F8A8D9B8DB7
:100540000197F1F79B8F8A8F2AC020E030E04FE7B8
:1005500053E46D817E818F8198850E94F40918167D
:10056000ACF469857A858B859C850E941309DC0132
:10057000CB019D8F8C8F8C8D9D8D9F8F8E8F8E8DBF
:100580009F8D0197F1F79F8F8E8F0FC06D817E81B8
:100590008F8198850E941309DC01CB018D878D85A1
:1005A00088A388A18A95F1F788A38BE290E02BE2DB
:1005B00030E0F90120812B7FFC0120838BE290E069
:1005C0002BE230E0F90120812860FC0120831092A9
:1005D0000001A0960FB6F894DEBF0FBECDBFDF912D
:1005E000CF910895CF93DF931F92CDB7DEB7898364
:1005F000000080EC90E0FC018081882F90E0807208
:100600009927892BB1F386EC90E02981FC012083A6
:100610000F90DF91CF910895CF93DF9300D000D05A
:100620001F92CDB7DEB79D838C831A82198282E038
:100630008B8314C08B81882F90E02C813D81820FA9
:10064000931FFC018081882F90E029813A81820FDD
:10065000931F9A8389838B818F5F8B838B81282F54
:1006600030E08C819D810396FC018081882F90E091
:10067000029682179307F4F6898180950F900F9068
:100680000F900F900F90DF91CF910895CF93DF934C
:1006900000D000D0CDB7DEB79B838A836C831982EC
:1006A0000EC08981882F90E02A813B81820F931FA1
:1006B000FC0180810E94F20289818F5F8983998188
:1006C0008C81981770F381E00F900F900F900F902E
:1006D000DF91CF9108951F93CF93DF9300D000D087
:1006E0001F92CDB7DEB79C838B836D831A821982EC
:1006F0000CC089819A819C012F5F3F4F3A832983E7
:100700008131974210F083E027C0909100018D81E4
:10071000981778F38B819C81FC0180818F3F39F49D
:100720008B819C810196FC0180818F3F11F082E0DA
:1007300013C08D81882F90E001972B813C81820F1F
:10074000931FFC0110818B819C810E940C03181760
:1007500011F082E001C081E00F900F900F900F9098
:100760000F90DF91CF911F9108950F931F93CF9317
:10077000DF9300D000D000D0CDB7DEB79C838B8351
:100780007E836D83198280918A018C5F8A838B813D
:100790009C812FEFFC0120838B819C8101962FEFA0
:1007A000FC0120838A81882F90E001972B813C8176
:1007B0008901080F191F8B819C810E940C03F8018D
:1007C00080830E94B8018B819C816A810E944603CC
:1007D0000E94D1018B819C810296FC0180818E3F19
:1007E000B9F08B819C810496FC018081823041F4B8
:1007F0008B819C810696FC0180818A5F898302C07F
:1008000086E089838D819E8169810E946B0303C08C
:100810000E94B80181E026960FB6F894DEBF0FBEA5
:10082000CDBFDF91CF911F910F910895CF93DF93AB
:100830001F92CDB7DEB7898389818093890182E0D9
:1008400080938A0181E080938B0167E072E087E802
:1008500091E00E94B5030F90DF91CF910895CF935F
:10086000DF9300D000D01F92CDB7DEB78A836B83B1
:100870005D834C838A818093890184E080938A011F
:1008800082E080938B018B8180938C0181E0809347
:100890008D0167E072E087E891E00E94B5038983EB
:1008A0008981813031F420910C028C819D81FC0181
:1008B000208389810F900F900F900F900F90DF9100
:1008C000CF910895CF93DF9300D000D01F92CDB782
:1008D000DEB78A836B835D834C838A818093890131
:1008E00084E080938A0182E080938B018B818093E6
:1008F0008C0182E080938D0167E072E087E891E0EF
:100900000E94B50389838981813069F490910D0239
:1009100080910C02692F0E94C1059C018C819D81F0
:10092000FC013183208389810F900F900F900F90ED
:100930000F90DF91CF910895CF93DF93CDB7DEB7BE
:1009400028970FB6F894DEBF0FBECDBF8C836D83A2
:100950004E8338872F839E818D81292F281B822FDC
:100960008F5F8A838C818093890184E080938A01E0
:1009700082E080938B018D8180938C018A818093AA
:100980008D0167E072E087E891E00E94B5038B83F8
:100990008B81813009F519821BC08D81282F30E0B1
:1009A0008981882F90E0820F931F9C018F81988509
:1009B000820F931F2981222F30E02B5F3F4F295F49
:1009C0003D4FF9012081FC01208389818F5F89835C
:1009D00099818A81981708F38B8128960FB6F8942D
:1009E000DEBF0FBECDBFDF91CF910895CF93DF93D0
:1009F00000D01F92CDB7DEB789836A834B8389818C
:100A00008093890184E080938A0183E080938B0145
:100A10008A8180938C018B8180938D0167E072E0E5
:100A200087E891E00E94B5030F900F900F90DF913F
:100A3000CF910895CF93DF9300D000D0CDB7DEB72C
:100A400089836A835C834B8389818093890185E0F4
:100A500080938A0183E080938B018A8180938C014B
:100A60008B819C810E94D70580938D018B819C8115
:100A70000E94E40580938E0167E072E087E891E0D0
:100A80000E94B5030F900F900F900F90DF91CF91C0
:100A90000895CF93DF9300D000D000D0CDB7DEB75C
:100AA0008A836B834C833E832D838EEF80938901F1
:100AB00083E880938B018A8180938C018B81809362
:100AC0008D018B81882F90E00196982F8C81989FC3
:100AD000802D11248C5F80938A01198214C0898132
:100AE000882F90E007962981222F30E04D815E818A
:100AF000240F351FF901208189579E4FFC01208367
:100B000089818F5F89838981282F30E08B81882FAD
:100B100090E0BC016F5F7F4F8C81482F50E0649F55
:100B2000C001659F900D749F900D112428173907FF
:100B3000B4F267E072E087E891E00E94B503269680
:100B40000FB6F894DEBF0FBECDBFDF91CF910895F1
:100B5000CF93DF931F92CDB7DEB7898389818093CE
:100B6000890182E080938A0186E080938B0167E0AF
:100B700072E087E891E00E94B5030F90DF91CF917A
:100B80000895CF93DF9300D0CDB7DEB789836A8312
:100B90008A81882F90E0382F22278981882F90E042
:100BA000820F931F0F900F90DF91CF910895CF93F5
:100BB000DF9300D0CDB7DEB79A83898389810F9008
:100BC0000F90DF91CF910895CF93DF9300D0CDB7F1
:100BD000DEB79A83898389819A81892F99270F901B
:100BE0000F90DF91CF910895CF93DF93CDB7DEB70C
:100BF00080E090E0DF91CF910895CF93DF93CDB760
:100C0000DEB727970FB6F894DEBF0FBECDBF6B835C
:100C10007C838D839E834F8388EC90E0FC0110825F
:100C200089EC90E028E1FC0120838AEC90E026E04A
:100C3000FC0120838F81813091F489EC90E029ECD4
:100C400030E0F9012081206CFC0120838FE590E0E9
:100C50002FE530E0F90120812068FC0120836B81C1
:100C60007C818D819E810E944209DC01CB0120E0C4
:100C700030E040E851E4BC01CD010E94F909DC01FB
:100C8000CB019C01AD0160E070EC88E29BE40E9426
:100C9000A108DC01CB0120E030E040E85FE3BC01CB
:100CA000CD010E942F08DC01CB0120E030E040E0C4
:100CB0005FE3BC01CD010E943008DC01CB01BC0127
:100CC000CD010E941309DC01CB019A8389838DEC4D
:100CD00090E029813A81232F3327FC0120838CEC7B
:100CE00090E02981FC01208327960FB6F894DEBF9F
:100CF0000FBECDBFDF91CF9108951F920F9200904C
:100D00005F000F92112400905B000F922F933F938E
:100D10008F939F93EF93FF93CF93DF93CDB7DEB77E
:100D2000809142018823D1F08091420181508093CB
:100D300042018EEC90E020914301222F30E02F5FA2
:100D40003E4FF9012081FC012083809143018F5F98
:100D500080934301803411F410924301DF91CF91CD
:100D6000FF91EF919F918F913F912F910F90009262
:100D70005B000F9000925F000F901F9018951F92DC
:100D80000F9200905F000F92112400905B000F9271
:100D90002F933F938F939F93EF93FF93CF93DF9383
:100DA0001F92CDB7DEB788EC90E0FC01808189838B
:100DB0008981882F90E08C719927892BD1F48091BB
:100DC0008401882F90E02EEC30E0F90120818C5BCB
:100DD0009E4FFC012083809184018F5F809384016A
:100DE000803411F410928401809185018F5F80938B
:100DF00085010F90DF91CF91FF91EF919F918F919E
:100E00003F912F910F9000925B000F9000925F0036
:100E10000F901F901895CF93DF931F92CDB7DEB739
:100E20008983000080EC90E0FC018081882F90E0B5
:100E300080729927892BB1F386EC90E02981FC011F
:100E400020830F90DF91CF910895CF93DF931F926E
:100E5000CDB7DEB78983000088EC90E0FC0180818B
:100E6000882F90E080729927892BB1F38EEC90E067
:100E70002981FC0120830F90DF91CF910895CF93BA
:100E8000DF931F92CDB7DEB7898389EC90E0FC0138
:100E900080818295869586958370882F90E08170F9
:100EA0009927892B99F10000809142018034E1F368
:100EB000F89480914201882351F488EC90E0FC0181
:100EC0008081882F90E080729927892BC1F48091CE
:100ED0004101882F90E08F5F9E4F2981FC01208384
:100EE000809141018F5F80934101803411F4109211
:100EF0004101809142018F5F8093420105C08EECD9
:100F000090E02981FC012083789403C089810E94AC
:100F100025070F90DF91CF910895CF93DF931F9214
:100F2000CDB7DEB789EC90E0FC018081881F88276F
:100F3000881F882F90E081709927892BE9F00000A5
:100F4000809185018823E1F380918601882F90E0CC
:100F50008C5B9E4FFC0180818983809186018F5F2D
:100F600080938601803411F410928601809185016E
:100F700081508093850113C0000088EC90E0FC0153
:100F80008081881F8827881F882F90E0817099278B
:100F9000892B99F38EEC90E0FC0180818983898113
:100FA0000F90DF91CF910895052E97FB1EF40094CA
:100FB0000E94EB0757FD07D00E94FE0707FC03D0F5
:100FC0004EF40C94EB0750954095309521953F4F8A
:100FD0004F4F5F4F089590958095709561957F4F25
:100FE0008F4F9F4F08950E942008A59F900DB49F9A
:100FF000900DA49F800D911D11240895A1E21A2E39
:10100000AA1BBB1BFD010DC0AA1FBB1FEE1FFF1FAC
:10101000A217B307E407F50720F0A21BB30BE40BFC
:10102000F50B661F771F881F991F1A9469F7609543
:101030007095809590959B01AC01BD01CF010895FD
:10104000A29FB001B39FC001A39F700D811D112409
:10105000911DB29F700D811D1124911D089550584E
:10106000BB27AA270E9447080C94BA090E94AC0922
:1010700038F00E94B30920F039F49F3F19F426F4A8
:101080000C94A9090EF4E095E7FB0C94A309E92F51
:101090000E94CB0958F3BA176207730784079507B4
:1010A00020F079F4A6F50C94ED090EF4E0950B2EE2
:1010B000BA2FA02D0B01B90190010C01CA01A001AA
:1010C0001124FF27591B99F0593F50F4503E68F105
:1010D0001A16F040A22F232F342F4427585FF3CF46
:1010E000469537952795A795F0405395C9F77EF417
:1010F0001F16BA0B620B730B840BBAF09150A1F060
:10110000FF0FBB1F661F771F881FC2F70EC0BA0FE5
:10111000621F731F841F48F4879577956795B7956D
:10112000F7959E3F08F0B0CF9395880F08F0992768
:10113000EE0F9795879508950E947F0908F481E046
:1011400008950E94B5080C94BA090E94B30958F09A
:101150000E94AC0940F029F45F3F29F00C94A309E8
:1011600051110C94EE090C94A9090E94CB0968F363
:101170009923B1F3552391F3951B550BBB27AA2750
:1011800062177307840738F09F5F5F4F220F331F8A
:10119000441FAA1FA9F335D00E2E3AF0E0E832D052
:1011A00091505040E695001CCAF72BD0FE2F29D055
:1011B000660F771F881FBB1F261737074807AB0727
:1011C000B0E809F0BB0B802DBF01FF2793585F4F9C
:1011D0003AF09E3F510578F00C94A3090C94EE0967
:1011E0005F3FE4F3983ED4F3869577956795B7957E
:1011F000F7959F5FC9F7880F911D9695879597F989
:101200000895E1E0660F771F881FBB1F6217730701
:101210008407BA0720F0621B730B840BBA0BEE1F16
:1012200088F7E09508950E94D30988F09F5798F0B9
:10123000B92F9927B751B0F0E1F0660F771F881FDB
:10124000991F1AF0BA95C9F714C0B13091F00E94F5
:10125000ED09B1E008950C94ED09672F782F8827E8
:10126000B85F39F0B93FCCF3869577956795B3951C
:10127000D9F73EF490958095709561957F4F8F4F8B
:101280009F4F0895E89409C097FB3EF49095809590
:10129000709561957F4F8F4F9F4F9923A9F0F92F3C
:1012A00096E9BB279395F695879577956795B795BA
:1012B000F111F8CFFAF4BB0F11F460FF1BC06F5FA0
:1012C0007F4F8F4F9F4F16C0882311F096E911C0B2
:1012D000772321F09EE8872F762F05C0662371F0D3
:1012E00096E8862F70E060E02AF09A95660F771FE7
:1012F000881FDAF7880F9695879597F90895990FC3
:101300000008550FAA0BE0E8FEEF16161706E807CF
:10131000F907C0F012161306E407F50798F0621BF0
:10132000730B840B950B39F40A2661F0232B242BC5
:10133000252B21F408950A2609F4A140A6958FEFE4
:10134000811D811D089597F99F6780E870E060E036
:1013500008959FEF80EC089500240A94161617064E
:1013600018060906089500240A9412161306140696
:1013700005060895092E0394000C11F4882352F0F9
:10138000BB0F40F4BF2B11F460FF04C06F5F7F4FB1
:101390008F4F9F4F089557FD9058440F551F59F098
:1013A0005F3F71F04795880F97FB991F61F09F3F52
:1013B00079F087950895121613061406551FF2CF7B
:1013C0004695F1DF08C0161617061806991FF1CFCB
:1013D00086957105610508940895E894BB276627F2
:1013E0007727CB0197F908950E947F0908F48FEFC2
:1013F00008950E940C0A0C94BA090E94AC0938F0B6
:101400000E94B30920F0952311F00C94A3090C94C9
:10141000A90911240C94EE090E94CB0970F3959F41
:10142000C1F3950F50E0551F629FF001729FBB27DB
:10143000F00DB11D639FAA27F00DB11DAA1F649F77
:101440006627B00DA11D661F829F2227B00DA11D2A
:10145000621F739FB00DA11D621F839FA00D611DB0
:10146000221F749F3327A00D611D231F849F600DD1
:10147000211D822F762F6A2F11249F5750409AF0FA
:10148000F1F088234AF0EE0FFF1FBB1F661F771F86
:10149000881F91505040A9F79E3F510580F00C9451
:1014A000A3090C94EE095F3FE4F3983ED4F38695CC
:1014B00077956795B795F795E7959F5FC1F7FE2BF1
:1014C000880F911D9695879597F90895F894FFCF09
:00000001FF
