:100000000C944A000C945C000C945C000C945C0012
:100010000C945C000C945C000C945C000C945C00F0
:100020000C945C000C945C000C945C000C945C00E0
:100030000C945C000C945C000C945C000C945C00D0
:100040000C945C000C945C000C945C000C945C00C0
:100050000C945C000C940D010C945C000C945C00FE
:100060000C945C000C945C000C945C000C945C00A0
:100070000C945C000C945C000C945C000C945C0090
:100080000C945C000C945C000C945C000C945C0080
:100090000C945C0011241FBECFEFD0E1DEBFCDBFBA
:1000A00022E0A0E0B1E001C01D92A130B207E1F76B
:1000B0000E94C6050C94B7070C940000CF93DF9301
:1000C00000D000D000D0CDB7DEB79A838983898174
:1000D0009A819C01990F440B550B8FEF9FEFDC0128
:1000E0000E94EE05DC01CB012CE231E040E050E063
:1000F000BC01CD010E94CF05DA01C90126960FB6D9
:10010000F894DEBF0FBECDBFDF91CF910895CF939E
:10011000DF9300D0CDB7DEB79A83898349815A81B6
:100120002CE231E0429FC001439F900D529F900D01
:10013000112421E030E08F3F9F4F10F420E030E0A9
:10014000C9010F900F90DF91CF910895CF93DF9366
:10015000CDB7DEB727970FB6F894DEBF0FBECDBF81
:100160008B837D836C835F834E838C819D810E9412
:100170005E009A83898389819A81AC0160E28B81D8
:100180000E94EC04813059F48C819D81AC016EE1B8
:100190008B810E94EC04813011F481E001C080E089
:1001A00027960FB6F894DEBF0FBECDBFDF91CF917B
:1001B0000895CF93DF9300D01F92CDB7DEB78B8326
:1001C000CE010196AC0164E28B810E94340481303F
:1001D00029F489819A810E94870002C080E090E022
:1001E0000F900F900F90DF91CF910895CF93DF93F1
:1001F00000D0CDB7DEB78A83CE010196AC016EE2A6
:100200008A810E940104813011F4898101C080E05B
:100210000F900F90DF91CF9108951F920F92009051
:100220005F000F92112400905B000F922F933F9379
:100230008F939F93EF93FF93CF93DF93CDB7DEB769
:100240008091000191E0980F90930001882F90E039
:1002500026EC30E0F90120818F579E4FFC0120836E
:10026000DF91CF91FF91EF919F918F913F912F91CE
:100270000F9000925B000F9000925F000F901F9014
:100280001895CF93DF9300D000D0CDB7DEB7698348
:100290007A838B839C8385EC90E0FC01108284EC54
:1002A00090E025E0FC01208381EC90E021EC30E03F
:1002B000F90120812860FC01208381EC90E021EC91
:1002C00030E0F90120812061FC01208381EC90E085
:1002D00021EC30E0F90120812068FC0120838AE2D2
:1002E00090E02AE230E0F90120812460FC012083C3
:1002F0008AE290E02AE230E0F90120812860FC01E6
:100300002083109200010F900F900F900F90DF91BB
:10031000CF910895CF93DF93CDB7DEB78BE290E016
:100320002BE230E0F90120812460FC0120838BE284
:1003300090E02BE230E0F9012081277FFC0120834F
:10034000DF91CF910895CF93DF93CDB7DEB7A0971C
:100350000FB6F894DEBF0FBECDBF000080EC90E07A
:10036000FC018081882F90E080749927892BB1F35C
:1003700080E090E0A0E8BFE389839A83AB83BC83ED
:100380002AEF3DEE4BE650E469817A818B819C81B6
:100390000E944A07DC01CB018D839E83AF83B8871F
:1003A0002CE732EF40E350E469817A818B819C81B4
:1003B0000E944A07DC01CB0189879A87AB87BC87FB
:1003C00020E030E040E85FE36D817E818F81988599
:1003D0000E942A0688231CF481E08D87B2C020E0A9
:1003E0003FEF4FE757E469857A858B859C850E94AE
:1003F000450718160CF07BC020E030E04AE754E4D3
:1004000069817A818B819C810E942F06DC01CB015E
:100410008E879F87A88BB98B2DEC3CEC4CE255E482
:100420006E857F85888999890E944A07DC01CB0106
:100430008A8B9B8BAC8BBD8B20E030E040E85FE388
:100440006A897B898C899D890E942A0688232CF4DD
:1004500081E090E09F8B8E8B3FC020E03FEF4FE725
:1004600057E46A897B898C899D890E944507181603
:100470004CF520E030E040E251E46E857F858889CC
:1004800099890E944A07DC01CB01BC01CD010E9481
:10049000A106DC01CB019F8B8E8B0FC084E191E024
:1004A000998F888F888D998D0197F1F7998F888F13
:1004B0008E899F8901979F8B8E8B8E899F89892B2F
:1004C00069F73FC06A897B898C899D890E94A10652
:1004D000DC01CB019F8B8E8B8E899F899B8F8A8FAE
:1004E0008A8D9B8D0197F1F79B8F8A8F2AC020E020
:1004F00030E04FE753E46D817E818F8198850E94C3
:1005000045071816ACF469857A858B859C850E9411
:10051000A106DC01CB019D8F8C8F8C8D9D8D9F8FD3
:100520008E8F8E8D9F8D0197F1F79F8F8E8F0FC0CD
:100530006D817E818F8198850E94A106DC01CB01AF
:100540008D878D8588A388A18A95F1F788A38BE292
:1005500090E02BE230E0F90120812B7FFC01208329
:100560008BE290E02BE230E0F90120812860FC0171
:10057000208310920001A0960FB6F894DEBF0FBE44
:10058000CDBFDF91CF910895CF93DF931F92CDB769
:10059000DEB78983000080EC90E0FC018081882F29
:1005A00090E080729927892BB1F386EC90E0298145
:1005B000FC0120830F90DF91CF910895CF93DF93BB
:1005C00000D000D01F92CDB7DEB79D838C831A82F6
:1005D000198282E08B8314C08B81882F90E02C815C
:1005E0003D81820F931FFC018081882F90E029813B
:1005F0003A81820F931F9A8389838B818F5F8B83CC
:100600008B81282F30E08C819D810396FC018081B5
:10061000882F90E0029682179307F4F689818095DF
:100620000F900F900F900F900F90DF91CF91089542
:10063000CF93DF9300D000D0CDB7DEB79B838A8302
:100640006C8319820EC08981882F90E02A813B81BA
:10065000820F931FFC0180810E94C40289818F5FF9
:10066000898399818C81981770F381E00F900F90A6
:100670000F900F90DF91CF9108951F93CF93DF9349
:1006800000D000D01F92CDB7DEB79C838B836D83E3
:100690001A8219820CC089819A819C012F5F3F4F79
:1006A0003A8329838131974210F083E027C09091EB
:1006B00000018D81981778F38B819C81FC018081EA
:1006C0008F3F39F48B819C810196FC0180818F3FA3
:1006D00011F082E013C08D81882F90E001972B816B
:1006E0003C81820F931FFC0110818B819C810E94B1
:1006F000DE02181711F082E001C081E00F900F9028
:100700000F900F900F90DF91CF911F9108950F934D
:100710001F93CF93DF9300D000D000D0CDB7DEB7CA
:100720009C838B837E836D831982809104018C5F0F
:100730008A838B819C812FEFFC0120838B819C819C
:1007400001962FEFFC0120838A81882F90E001978A
:100750002B813C818901080F191F8B819C810E948C
:10076000DE02F80180830E948A018B819C816A816C
:100770000E9418030E94A3018B819C810296FC01B8
:1007800080818E3FB9F08B819C810496FC01808131
:10079000823041F48B819C810696FC0180818A5FC6
:1007A000898302C086E089838D819E8169810E9450
:1007B0003D0303C00E948A0181E026960FB6F8949B
:1007C000DEBF0FBECDBFDF91CF911F910F91089576
:1007D000CF93DF931F92CDB7DEB789838981809352
:1007E000030182E08093040181E08093050161E8C8
:1007F00071E081E091E00E9487030F90DF91CF913B
:100800000895CF93DF9300D000D01F92CDB7DEB70D
:100810008A836B835D834C838A818093030184E0A8
:100820008093040182E0809305018B81809306010F
:1008300081E08093070161E871E081E091E00E942E
:10084000870389838981813031F4209186018C81ED
:100850009D81FC01208389810F900F900F900F9054
:100860000F90DF91CF910895CF93DF9300D000D008
:100870001F92CDB7DEB78A836B835D834C838A81F9
:100880008093030184E08093040182E0809305015A
:100890008B818093060182E08093070161E871E01B
:1008A00081E091E00E94870389838981813069F426
:1008B0009091870180918601692F0E9493059C0188
:1008C0008C819D81FC013183208389810F900F9061
:1008D0000F900F900F90DF91CF910895CF93DF93FA
:1008E000CDB7DEB728970FB6F894DEBF0FBECDBFE9
:1008F0008C836D834E8338872F839E818D81292F32
:10090000281B822F8F5F8A838C818093030184E070
:100910008093040182E0809305018D81809306011C
:100920008A818093070161E871E081E091E00E9493
:1009300087038B838B81813009F519821BC08D81E0
:10094000282F30E08981882F90E0820F931F9C012F
:100950008F819885820F931F2981222F30E02B5F92
:100960003F4F2F573E4FF9012081FC0120838981A1
:100970008F5F898399818A81981708F38B812896E4
:100980000FB6F894DEBF0FBECDBFDF91CF910895B3
:10099000CF93DF9300D01F92CDB7DEB789836A83F0
:1009A0004B8389818093030184E08093040183E079
:1009B000809305018A81809306018B8180930701D2
:1009C00061E871E081E091E00E9487030F900F9051
:1009D0000F90DF91CF910895CF93DF9300D000D097
:1009E000CDB7DEB789836A835C834B83898180932B
:1009F000030185E08093040183E0809305018A81EF
:100A0000809306018B819C810E94A9058093070138
:100A10008B819C810E94B6058093080161E871E09A
:100A200081E091E00E9487030F900F900F900F904C
:100A3000DF91CF910895CF93DF9300D000D000D005
:100A4000CDB7DEB78A836B834C833E832D838EEFD5
:100A50008093030183E8809305018A8180930601D6
:100A60008B81809307018B81882F90E00196982FCE
:100A70008C81989F802D11248C5F809304011982B2
:100A800014C08981882F90E007962981222F30E0B9
:100A90004D815E81240F351FF90120818F5F9E4FAC
:100AA000FC01208389818F5F89838981282F30E031
:100AB0008B81882F90E0BC016F5F7F4F8C81482F26
:100AC00050E0649FC001659F900D749F900D1124AC
:100AD00028173907B4F261E871E081E091E00E94E3
:100AE000870326960FB6F894DEBF0FBECDBFDF9109
:100AF000CF910895CF93DF931F92CDB7DEB789834F
:100B000089818093030182E08093040186E08093D1
:100B1000050161E871E081E091E00E9487030F9098
:100B2000DF91CF910895CF93DF9300D0CDB7DEB79B
:100B300089836A838A81882F90E0382F22278981D0
:100B4000882F90E0820F931F0F900F90DF91CF912D
:100B50000895CF93DF9300D0CDB7DEB79A83898312
:100B600089810F900F90DF91CF910895CF93DF93FC
:100B700000D0CDB7DEB79A83898389819A81892F86
:100B800099270F900F90DF91CF910895CF93DF9326
:100B9000CDB7DEB780E090E0DF91CF910895052ECC
:100BA00097FB1EF400940E94E60557FD07D00E94B3
:100BB000F90507FC03D04EF40C94E60550954095DA
:100BC000309521953F4F4F4F5F4F089590958095F9
:100BD000709561957F4F8F4F9F4F08950E941B0620
:100BE000A59F900DB49F900DA49F800D911D112481
:100BF0000895A1E21A2EAA1BBB1BFD010DC0AA1F5E
:100C0000BB1FEE1FFF1FA217B307E407F50720F075
:100C1000A21BB30BE40BF50B661F771F881F991FF0
:100C20001A9469F760957095809590959B01AC0139
:100C3000BD01CF010895A29FB001B39FC001A39F42
:100C4000700D811D1124911DB29F700D811D112405
:100C5000911D08950E94D00608F481E008950E9435
:100C600043060C940B070E94040758F00E94FD06EF
:100C700040F029F45F3F29F00C94F40651110C94D4
:100C80003F070C94FA060E941C0768F39923B1F3FE
:100C9000552391F3951B550BBB27AA2762177307A2
:100CA000840738F09F5F5F4F220F331F441FAA1F36
:100CB000A9F335D00E2E3AF0E0E832D091505040F2
:100CC000E695001CCAF72BD0FE2F29D0660F771FA0
:100CD000881FBB1F261737074807AB07B0E809F086
:100CE000BB0B802DBF01FF2793585F4F3AF09E3F0B
:100CF000510578F00C94F4060C943F075F3FE4F341
:100D0000983ED4F3869577956795B795F7959F5F4D
:100D1000C9F7880F911D9695879597F90895E1E099
:100D2000660F771F881FBB1F621773078407BA07F8
:100D300020F0621B730B840BBA0BEE1F88F7E09553
:100D400008950E94240788F09F5798F0B92F99279B
:100D5000B751B0F0E1F0660F771F881F991F1AF0A6
:100D6000BA95C9F714C0B13091F00E943E07B1E0C6
:100D700008950C943E07672F782F8827B85F39F0C5
:100D8000B93FCCF3869577956795B395D9F73EF43F
:100D900090958095709561957F4F8F4F9F4F0895E7
:100DA000990F0008550FAA0BE0E8FEEF161617067C
:100DB000E807F907C0F012161306E407F50798F0E4
:100DC000621B730B840B950B39F40A2661F0232BFD
:100DD000242B252B21F408950A2609F4A140A69579
:100DE0008FEF811D811D089597F99F6780E870E05E
:100DF00060E008959FEF80EC089500240A94161691
:100E0000170618060906089500240A9412161306F8
:100E1000140605060895092E0394000C11F4882386
:100E200052F0BB0F40F4BF2B11F460FF04C06F5FA2
:100E30007F4F8F4F9F4F089557FD9058440F551F78
:100E400059F05F3F71F04795880F97FB991F61F04C
:100E50009F3F79F087950895121613061406551FC3
:100E6000F2CF4695F1DF08C0161617061806991F2F
:100E7000F1CF86957105610508940895E894BB2724
:100E800066277727CB0197F908950E94D00608F4CA
:100E90008FEF08950E945D070C940B070E94FD06DA
:100EA00038F00E94040720F0952311F00C94F4060A
:100EB0000C94FA0611240C943F070E941C0770F34F
:100EC000959FC1F3950F50E0551F629FF001729FEF
:100ED000BB27F00DB11D639FAA27F00DB11DAA1FFE
:100EE000649F6627B00DA11D661F829F2227B00D4B
:100EF000A11D621F739FB00DA11D621F839FA00DD6
:100F0000611D221F749F3327A00D611D231F849F25
:100F1000600D211D822F762F6A2F11249F5750407C
:100F20009AF0F1F088234AF0EE0FFF1FBB1F661FF7
:100F3000771F881F91505040A9F79E3F510580F0C0
:100F40000C94F4060C943F075F3FE4F3983ED4F30F
:100F5000869577956795B795F795E7959F5FC1F764
:100F6000FE2B880F911D9695879597F90895F89413
:020F7000FFCFB1
:00000001FF
